{
  "transactions": [
    {
      "hash": "0xb0e16236fb351afe01db5e600672abddc35398ede493feb6dd09b8c0e9721001",
      "transactionType": "CALL",
      "contractName": null,
      "contractAddress": "0x779877a7b0d9e8603169ddbd7836e478b4624789",
      "function": "transferAndCall(address,uint256,bytes)",
      "arguments": [
        "0x9DdfaCa8183c41ad55329BdeeD9F6A8d53168B1B",
        "3000000000000000000",
        "0xfad8ec903bf65270fc83905bd4d890f7c78e8fcce179f4e9c6c6c4d1553ae1e4"
      ],
      "transaction": {
        "from": "0x35cb49b32c6b4cdf7c2c76513fb5584bb8ba30e8",
        "to": "0x779877a7b0d9e8603169ddbd7836e478b4624789",
        "gas": "0x14cbb",
        "value": "0x0",
        "input": "0x4000aea00000000000000000000000009ddfaca8183c41ad55329bdeed9f6a8d53168b1b00000000000000000000000000000000000000000000000029a2241af62c000000000000000000000000000000000000000000000000000000000000000000600000000000000000000000000000000000000000000000000000000000000020fad8ec903bf65270fc83905bd4d890f7c78e8fcce179f4e9c6c6c4d1553ae1e4",
        "nonce": "0x15",
        "chainId": "0xaa36a7"
      },
      "additionalContracts": [],
      "isFixedGasLimit": false
    }
  ],
  "receipts": [
    {
      "status": "0x1",
      "cumulativeGasUsed": "0xbb3d54",
      "logs": [
        {
          "address": "0x779877a7b0d9e8603169ddbd7836e478b4624789",
          "topics": [
            "0xddf252ad1be2c89b69c2b068fc378daa952ba7f163c4a11628f55a4df523b3ef",
            "0x00000000000000000000000035cb49b32c6b4cdf7c2c76513fb5584bb8ba30e8",
            "0x0000000000000000000000009ddfaca8183c41ad55329bdeed9f6a8d53168b1b"
          ],
          "data": "0x00000000000000000000000000000000000000000000000029a2241af62c0000",
          "blockHash": "0xba1c113df9955f81d25f7dcec1bdff977271f8ec124429359ec0b9b5f324b300",
          "blockNumber": "0x628c76",
          "transactionHash": "0xb0e16236fb351afe01db5e600672abddc35398ede493feb6dd09b8c0e9721001",
          "transactionIndex": "0x42",
          "logIndex": "0x8c",
          "removed": false
        },
        {
          "address": "0x779877a7b0d9e8603169ddbd7836e478b4624789",
          "topics": [
            "0xe19260aff97b920c7df27010903aeb9c8d2be5d310a2c67824cf3f15396e4c16",
            "0x00000000000000000000000035cb49b32c6b4cdf7c2c76513fb5584bb8ba30e8",
            "0x0000000000000000000000009ddfaca8183c41ad55329bdeed9f6a8d53168b1b"
          ],
          "data": "0x00000000000000000000000000000000000000000000000029a2241af62c000000000000000000000000000000000000000000000000000000000000000000400000000000000000000000000000000000000000000000000000000000000020fad8ec903bf65270fc83905bd4d890f7c78e8fcce179f4e9c6c6c4d1553ae1e4",
          "blockHash": "0xba1c113df9955f81d25f7dcec1bdff977271f8ec124429359ec0b9b5f324b300",
          "blockNumber": "0x628c76",
          "transactionHash": "0xb0e16236fb351afe01db5e600672abddc35398ede493feb6dd09b8c0e9721001",
          "transactionIndex": "0x42",
          "logIndex": "0x8d",
          "removed": false
        },
        {
          "address": "0x9ddfaca8183c41ad55329bdeed9f6a8d53168b1b",
          "topics": [
            "0x1ced9348ff549fceab2ac57cd3a9de38edaaab274b725ee82c23e8fc8c4eec7a",
            "0xfad8ec903bf65270fc83905bd4d890f7c78e8fcce179f4e9c6c6c4d1553ae1e4"
          ],
          "data": "0x0000000000000000000000000000000000000000000000008ac7230489e80000000000000000000000000000000000000000000000000000b469471f80140000",
          "blockHash": "0xba1c113df9955f81d25f7dcec1bdff977271f8ec124429359ec0b9b5f324b300",
          "blockNumber": "0x628c76",
          "transactionHash": "0xb0e16236fb351afe01db5e600672abddc35398ede493feb6dd09b8c0e9721001",
          "transactionIndex": "0x42",
          "logIndex": "0x8e",
          "removed": false
        }
      ],
      "logsBloom": "0x00000004000000000000000000000000000000000020000000000000020000000000000000000000000000000000400000000000000000000000000000000000000000000000000000000008000000000000000000000000000820000020000008000000000000000000000000000000000000000000000000000010000040000000000000000000000000010000800000000120000000000000000000000000000000000000000010000000010000000000000000000000000004000000000000000002000000000000000000000000000004000000000100000000000000000010000000000000800000008000000000000000000000000000000000000000",
      "type": "0x2",
      "transactionHash": "0xb0e16236fb351afe01db5e600672abddc35398ede493feb6dd09b8c0e9721001",
      "transactionIndex": "0x42",
      "blockHash": "0xba1c113df9955f81d25f7dcec1bdff977271f8ec124429359ec0b9b5f324b300",
      "blockNumber": "0x628c76",
      "gasUsed": "0xf0e5",
      "effectiveGasPrice": "0x2289351f3",
      "from": "0x35cb49b32c6b4cdf7c2c76513fb5584bb8ba30e8",
      "to": "0x779877a7b0d9e8603169ddbd7836e478b4624789",
      "contractAddress": null
    }
  ],
  "libraries": [],
  "pending": [],
  "returns": {},
  "timestamp": 1723090923,
  "chain": 11155111,
  "commit": "4090042"
}